{
  "_format": "hh-sol-artifact-1",
  "contractName": "JPTOKEN",
  "sourceName": "contracts/JPTOKEN.sol",
  "abi": [
    {
      "inputs": [
        {
          "internalType": "address",
          "name": "initialOwner",
          "type": "address"
        }
      ],
      "stateMutability": "nonpayable",
      "type": "constructor"
    },
    {
      "inputs": [],
      "name": "ECDSAInvalidSignature",
      "type": "error"
    },
    {
      "inputs": [
        {
          "internalType": "uint256",
          "name": "length",
          "type": "uint256"
        }
      ],
      "name": "ECDSAInvalidSignatureLength",
      "type": "error"
    },
    {
      "inputs": [
        {
          "internalType": "bytes32",
          "name": "s",
          "type": "bytes32"
        }
      ],
      "name": "ECDSAInvalidSignatureS",
      "type": "error"
    },
    {
      "inputs": [
        {
          "internalType": "address",
          "name": "spender",
          "type": "address"
        },
        {
          "internalType": "uint256",
          "name": "allowance",
          "type": "uint256"
        },
        {
          "internalType": "uint256",
          "name": "needed",
          "type": "uint256"
        }
      ],
      "name": "ERC20InsufficientAllowance",
      "type": "error"
    },
    {
      "inputs": [
        {
          "internalType": "address",
          "name": "sender",
          "type": "address"
        },
        {
          "internalType": "uint256",
          "name": "balance",
          "type": "uint256"
        },
        {
          "internalType": "uint256",
          "name": "needed",
          "type": "uint256"
        }
      ],
      "name": "ERC20InsufficientBalance",
      "type": "error"
    },
    {
      "inputs": [
        {
          "internalType": "address",
          "name": "approver",
          "type": "address"
        }
      ],
      "name": "ERC20InvalidApprover",
      "type": "error"
    },
    {
      "inputs": [
        {
          "internalType": "address",
          "name": "receiver",
          "type": "address"
        }
      ],
      "name": "ERC20InvalidReceiver",
      "type": "error"
    },
    {
      "inputs": [
        {
          "internalType": "address",
          "name": "sender",
          "type": "address"
        }
      ],
      "name": "ERC20InvalidSender",
      "type": "error"
    },
    {
      "inputs": [
        {
          "internalType": "address",
          "name": "spender",
          "type": "address"
        }
      ],
      "name": "ERC20InvalidSpender",
      "type": "error"
    },
    {
      "inputs": [
        {
          "internalType": "uint256",
          "name": "deadline",
          "type": "uint256"
        }
      ],
      "name": "ERC2612ExpiredSignature",
      "type": "error"
    },
    {
      "inputs": [
        {
          "internalType": "address",
          "name": "signer",
          "type": "address"
        },
        {
          "internalType": "address",
          "name": "owner",
          "type": "address"
        }
      ],
      "name": "ERC2612InvalidSigner",
      "type": "error"
    },
    {
      "inputs": [
        {
          "internalType": "address",
          "name": "account",
          "type": "address"
        },
        {
          "internalType": "uint256",
          "name": "currentNonce",
          "type": "uint256"
        }
      ],
      "name": "InvalidAccountNonce",
      "type": "error"
    },
    {
      "inputs": [],
      "name": "InvalidShortString",
      "type": "error"
    },
    {
      "inputs": [
        {
          "internalType": "address",
          "name": "owner",
          "type": "address"
        }
      ],
      "name": "OwnableInvalidOwner",
      "type": "error"
    },
    {
      "inputs": [
        {
          "internalType": "address",
          "name": "account",
          "type": "address"
        }
      ],
      "name": "OwnableUnauthorizedAccount",
      "type": "error"
    },
    {
      "inputs": [
        {
          "internalType": "string",
          "name": "str",
          "type": "string"
        }
      ],
      "name": "StringTooLong",
      "type": "error"
    },
    {
      "anonymous": false,
      "inputs": [
        {
          "indexed": true,
          "internalType": "address",
          "name": "owner",
          "type": "address"
        },
        {
          "indexed": true,
          "internalType": "address",
          "name": "spender",
          "type": "address"
        },
        {
          "indexed": false,
          "internalType": "uint256",
          "name": "value",
          "type": "uint256"
        }
      ],
      "name": "Approval",
      "type": "event"
    },
    {
      "anonymous": false,
      "inputs": [],
      "name": "EIP712DomainChanged",
      "type": "event"
    },
    {
      "anonymous": false,
      "inputs": [
        {
          "indexed": true,
          "internalType": "address",
          "name": "previousOwner",
          "type": "address"
        },
        {
          "indexed": true,
          "internalType": "address",
          "name": "newOwner",
          "type": "address"
        }
      ],
      "name": "OwnershipTransferred",
      "type": "event"
    },
    {
      "anonymous": false,
      "inputs": [
        {
          "indexed": true,
          "internalType": "address",
          "name": "from",
          "type": "address"
        },
        {
          "indexed": true,
          "internalType": "address",
          "name": "to",
          "type": "address"
        },
        {
          "indexed": false,
          "internalType": "uint256",
          "name": "value",
          "type": "uint256"
        }
      ],
      "name": "Transfer",
      "type": "event"
    },
    {
      "inputs": [],
      "name": "DOMAIN_SEPARATOR",
      "outputs": [
        {
          "internalType": "bytes32",
          "name": "",
          "type": "bytes32"
        }
      ],
      "stateMutability": "view",
      "type": "function"
    },
    {
      "inputs": [],
      "name": "FEE_PERCENTAGE",
      "outputs": [
        {
          "internalType": "uint256",
          "name": "",
          "type": "uint256"
        }
      ],
      "stateMutability": "view",
      "type": "function"
    },
    {
      "inputs": [],
      "name": "INITIAL_SUPPLY",
      "outputs": [
        {
          "internalType": "uint256",
          "name": "",
          "type": "uint256"
        }
      ],
      "stateMutability": "view",
      "type": "function"
    },
    {
      "inputs": [],
      "name": "MAX_CLAIM",
      "outputs": [
        {
          "internalType": "uint256",
          "name": "",
          "type": "uint256"
        }
      ],
      "stateMutability": "view",
      "type": "function"
    },
    {
      "inputs": [
        {
          "internalType": "address",
          "name": "owner",
          "type": "address"
        },
        {
          "internalType": "address",
          "name": "spender",
          "type": "address"
        }
      ],
      "name": "allowance",
      "outputs": [
        {
          "internalType": "uint256",
          "name": "",
          "type": "uint256"
        }
      ],
      "stateMutability": "view",
      "type": "function"
    },
    {
      "inputs": [
        {
          "internalType": "address",
          "name": "spender",
          "type": "address"
        },
        {
          "internalType": "uint256",
          "name": "value",
          "type": "uint256"
        }
      ],
      "name": "approve",
      "outputs": [
        {
          "internalType": "bool",
          "name": "",
          "type": "bool"
        }
      ],
      "stateMutability": "nonpayable",
      "type": "function"
    },
    {
      "inputs": [
        {
          "internalType": "address",
          "name": "account",
          "type": "address"
        }
      ],
      "name": "balanceOf",
      "outputs": [
        {
          "internalType": "uint256",
          "name": "",
          "type": "uint256"
        }
      ],
      "stateMutability": "view",
      "type": "function"
    },
    {
      "inputs": [
        {
          "internalType": "address",
          "name": "recipient",
          "type": "address"
        },
        {
          "internalType": "uint256",
          "name": "amount",
          "type": "uint256"
        }
      ],
      "name": "claimTokens",
      "outputs": [
        {
          "internalType": "bool",
          "name": "",
          "type": "bool"
        }
      ],
      "stateMutability": "nonpayable",
      "type": "function"
    },
    {
      "inputs": [
        {
          "internalType": "address",
          "name": "",
          "type": "address"
        }
      ],
      "name": "claimedTokens",
      "outputs": [
        {
          "internalType": "uint256",
          "name": "",
          "type": "uint256"
        }
      ],
      "stateMutability": "view",
      "type": "function"
    },
    {
      "inputs": [],
      "name": "decimals",
      "outputs": [
        {
          "internalType": "uint8",
          "name": "",
          "type": "uint8"
        }
      ],
      "stateMutability": "view",
      "type": "function"
    },
    {
      "inputs": [],
      "name": "eip712Domain",
      "outputs": [
        {
          "internalType": "bytes1",
          "name": "fields",
          "type": "bytes1"
        },
        {
          "internalType": "string",
          "name": "name",
          "type": "string"
        },
        {
          "internalType": "string",
          "name": "version",
          "type": "string"
        },
        {
          "internalType": "uint256",
          "name": "chainId",
          "type": "uint256"
        },
        {
          "internalType": "address",
          "name": "verifyingContract",
          "type": "address"
        },
        {
          "internalType": "bytes32",
          "name": "salt",
          "type": "bytes32"
        },
        {
          "internalType": "uint256[]",
          "name": "extensions",
          "type": "uint256[]"
        }
      ],
      "stateMutability": "view",
      "type": "function"
    },
    {
      "inputs": [
        {
          "internalType": "address",
          "name": "account",
          "type": "address"
        }
      ],
      "name": "getJPTBalance",
      "outputs": [
        {
          "internalType": "uint256",
          "name": "",
          "type": "uint256"
        }
      ],
      "stateMutability": "view",
      "type": "function"
    },
    {
      "inputs": [
        {
          "internalType": "address",
          "name": "account",
          "type": "address"
        }
      ],
      "name": "isTokenHolder",
      "outputs": [
        {
          "internalType": "bool",
          "name": "",
          "type": "bool"
        }
      ],
      "stateMutability": "view",
      "type": "function"
    },
    {
      "inputs": [],
      "name": "name",
      "outputs": [
        {
          "internalType": "string",
          "name": "",
          "type": "string"
        }
      ],
      "stateMutability": "view",
      "type": "function"
    },
    {
      "inputs": [
        {
          "internalType": "address",
          "name": "owner",
          "type": "address"
        }
      ],
      "name": "nonces",
      "outputs": [
        {
          "internalType": "uint256",
          "name": "",
          "type": "uint256"
        }
      ],
      "stateMutability": "view",
      "type": "function"
    },
    {
      "inputs": [],
      "name": "owner",
      "outputs": [
        {
          "internalType": "address",
          "name": "",
          "type": "address"
        }
      ],
      "stateMutability": "view",
      "type": "function"
    },
    {
      "inputs": [
        {
          "internalType": "address",
          "name": "owner",
          "type": "address"
        },
        {
          "internalType": "address",
          "name": "spender",
          "type": "address"
        },
        {
          "internalType": "uint256",
          "name": "value",
          "type": "uint256"
        },
        {
          "internalType": "uint256",
          "name": "deadline",
          "type": "uint256"
        },
        {
          "internalType": "uint8",
          "name": "v",
          "type": "uint8"
        },
        {
          "internalType": "bytes32",
          "name": "r",
          "type": "bytes32"
        },
        {
          "internalType": "bytes32",
          "name": "s",
          "type": "bytes32"
        }
      ],
      "name": "permit",
      "outputs": [],
      "stateMutability": "nonpayable",
      "type": "function"
    },
    {
      "inputs": [],
      "name": "renounceOwnership",
      "outputs": [],
      "stateMutability": "nonpayable",
      "type": "function"
    },
    {
      "inputs": [],
      "name": "symbol",
      "outputs": [
        {
          "internalType": "string",
          "name": "",
          "type": "string"
        }
      ],
      "stateMutability": "view",
      "type": "function"
    },
    {
      "inputs": [
        {
          "internalType": "uint256",
          "name": "",
          "type": "uint256"
        }
      ],
      "name": "tokenHolders",
      "outputs": [
        {
          "internalType": "address",
          "name": "",
          "type": "address"
        }
      ],
      "stateMutability": "view",
      "type": "function"
    },
    {
      "inputs": [],
      "name": "tokensRemaining",
      "outputs": [
        {
          "internalType": "uint256",
          "name": "",
          "type": "uint256"
        }
      ],
      "stateMutability": "view",
      "type": "function"
    },
    {
      "inputs": [],
      "name": "totalSupply",
      "outputs": [
        {
          "internalType": "uint256",
          "name": "",
          "type": "uint256"
        }
      ],
      "stateMutability": "view",
      "type": "function"
    },
    {
      "inputs": [
        {
          "internalType": "address",
          "name": "to",
          "type": "address"
        },
        {
          "internalType": "uint256",
          "name": "value",
          "type": "uint256"
        }
      ],
      "name": "transfer",
      "outputs": [
        {
          "internalType": "bool",
          "name": "",
          "type": "bool"
        }
      ],
      "stateMutability": "nonpayable",
      "type": "function"
    },
    {
      "inputs": [
        {
          "internalType": "address",
          "name": "from",
          "type": "address"
        },
        {
          "internalType": "address",
          "name": "to",
          "type": "address"
        },
        {
          "internalType": "uint256",
          "name": "value",
          "type": "uint256"
        }
      ],
      "name": "transferFrom",
      "outputs": [
        {
          "internalType": "bool",
          "name": "",
          "type": "bool"
        }
      ],
      "stateMutability": "nonpayable",
      "type": "function"
    },
    {
      "inputs": [
        {
          "internalType": "address",
          "name": "newOwner",
          "type": "address"
        }
      ],
      "name": "transferOwnership",
      "outputs": [],
      "stateMutability": "nonpayable",
      "type": "function"
    }
  ],
  "bytecode": "0x6101606040526b43dacaf91c1a84ff080000006009553480156200002257600080fd5b5060405162002367380380620023678339810160408190526200004591620008a8565b806040518060400160405280600781526020016625282a27a5a2a760c91b81525080604051806040016040528060018152602001603160f81b8152506040518060400160405280600781526020016625282a27a5a2a760c91b8152506040518060400160405280600381526020016212941560ea1b8152508160039081620000ce919062000980565b506004620000dd828262000980565b50620000ef9150839050600562000242565b610120526200010081600662000242565b61014052815160208084019190912060e052815190820120610100524660a0526200018e60e05161010051604080517f8b73c3c69bb8fe3d512ecc4cf759cc79239f7b179b0ffacaa9a75d522b39400f60208201529081019290925260608201524660808201523060a082015260009060c00160405160208183030381529060405280519060200120905090565b60805250503060c052506001600160a01b038116620001c857604051631e4fbdf760e01b8152600060048201526024015b60405180910390fd5b620001d3816200027b565b50620001ec816b43dacaf91c1a84ff08000000620002cd565b600b80546001810182556000919091527f0175b7a638427703f0dbe7bb9bbf987a2551717b34e79f33b5b1008d1fa01db90180546001600160a01b0319166001600160a01b039290921691909117905562000b6d565b600060208351101562000262576200025a836200030b565b905062000275565b816200026f848262000980565b5060ff90505b92915050565b600880546001600160a01b038381166001600160a01b0319831681179093556040519116919082907f8be0079c531659141344cd1fd0a4f28419497f9722a3daafe3b4186f6b6457e090600090a35050565b6001600160a01b038216620002f95760405163ec442f0560e01b815260006004820152602401620001bf565b62000307600083836200034e565b5050565b600080829050601f8151111562000339578260405163305a27a960e01b8152600401620001bf919062000a4c565b8051620003468262000a9d565b179392505050565b6001600160a01b038216620003b25760405162461bcd60e51b815260206004820152602360248201527f45524332303a207472616e7366657220746f20746865207a65726f206164647260448201526265737360e81b6064820152608401620001bf565b6001600160a01b038316156200048457306001600160a01b038416036200042a5760405162461bcd60e51b815260206004820152602560248201527f45524332303a207472616e736665722066726f6d20746865207a65726f206164604482015264647265737360d81b6064820152608401620001bf565b600060646200043b60058462000ad8565b62000447919062000af2565b9050600062000457828462000b15565b905062000466858583620004a3565b6200047182620005d6565b6200047d858562000677565b5050505050565b62000491838383620004a3565b6200049e60008362000677565b505050565b6001600160a01b038316620004d2578060026000828254620004c6919062000b2b565b90915550620005469050565b6001600160a01b03831660009081526020819052604090205481811015620005275760405163391434e360e21b81526001600160a01b03851660048201526024810182905260448101839052606401620001bf565b6001600160a01b03841660009081526020819052604090209082900390555b6001600160a01b038216620005645760028054829003905562000583565b6001600160a01b03821660009081526020819052604090208054820190555b816001600160a01b0316836001600160a01b03167fddf252ad1be2c89b69c2b068fc378daa952ba7f163c4a11628f55a4df523b3ef83604051620005c991815260200190565b60405180910390a3505050565b6000620005e260025490565b905060005b600b548110156200049e576000600b82815481106200060a576200060a62000b41565b60009182526020822001546001600160a01b0316915062000640826001600160a01b031660009081526020819052604090205490565b905060008462000651878462000ad8565b6200065d919062000af2565b90506200066b8382620002cd565b505050600101620005e7565b6001600160a01b038116600090815260208190526040812054118015620006a65750620006a48162000736565b155b15620006f857600b80546001810182556000919091527f0175b7a638427703f0dbe7bb9bbf987a2551717b34e79f33b5b1008d1fa01db90180546001600160a01b0319166001600160a01b0383161790555b6001600160a01b038216600090815260208190526040902054158015620007255750620007258262000736565b15620003075762000307826200079b565b6000805b600b548110156200079257826001600160a01b0316600b828154811062000765576200076562000b41565b6000918252602090912001546001600160a01b031603620007895750600192915050565b6001016200073a565b50600092915050565b600b5460005b818110156200049e57826001600160a01b0316600b8281548110620007ca57620007ca62000b41565b6000918252602090912001546001600160a01b0316036200089f57600b620007f460018462000b15565b8154811062000807576200080762000b41565b600091825260209091200154600b80546001600160a01b03909216918390811062000836576200083662000b41565b9060005260206000200160006101000a8154816001600160a01b0302191690836001600160a01b03160217905550600b80548062000878576200087862000b57565b600082815260209020810160001990810180546001600160a01b0319169055019055505050565b600101620007a1565b600060208284031215620008bb57600080fd5b81516001600160a01b0381168114620008d357600080fd5b9392505050565b634e487b7160e01b600052604160045260246000fd5b600181811c908216806200090557607f821691505b6020821081036200092657634e487b7160e01b600052602260045260246000fd5b50919050565b601f8211156200049e576000816000526020600020601f850160051c81016020861015620009575750805b601f850160051c820191505b81811015620009785782815560010162000963565b505050505050565b81516001600160401b038111156200099c576200099c620008da565b620009b481620009ad8454620008f0565b846200092c565b602080601f831160018114620009ec5760008415620009d35750858301515b600019600386901b1c1916600185901b17855562000978565b600085815260208120601f198616915b8281101562000a1d57888601518255948401946001909101908401620009fc565b508582101562000a3c5787850151600019600388901b60f8161c191681555b5050505050600190811b01905550565b60006020808352835180602085015260005b8181101562000a7c5785810183015185820160400152820162000a5e565b506000604082860101526040601f19601f8301168501019250505092915050565b80516020808301519190811015620009265760001960209190910360031b1b16919050565b634e487b7160e01b600052601160045260246000fd5b808202811582820484141762000275576200027562000ac2565b60008262000b1057634e487b7160e01b600052601260045260246000fd5b500490565b8181038181111562000275576200027562000ac2565b8082018082111562000275576200027562000ac2565b634e487b7160e01b600052603260045260246000fd5b634e487b7160e01b600052603160045260246000fd5b60805160a05160c05160e05161010051610120516101405161179f62000bc86000396000610b4801526000610b1b01526000610a4401526000610a1c01526000610977015260006109a1015260006109cb015261179f6000f3fe608060405234801561001057600080fd5b50600436106101725760003560e01c8063715018a6116100de578063a9059cbb11610097578063d505accf11610071578063d505accf14610322578063dd62ed3e14610335578063f2fde38b1461036e578063fe417fa51461038157600080fd5b8063a9059cbb146102e6578063a960c65f146102f9578063c8b081251461031957600080fd5b8063715018a61461026e5780637ecebe001461027857806384b0196e1461028b5780638da5cb5b146102a6578063923108d9146102cb57806395d89b41146102de57600080fd5b806323b872dd1161013057806323b872dd146101f55780632ff2e9dc14610208578063313ce5671461021b5780633644e5151461022a57806365731fe91461023257806370a082311461024557600080fd5b80620b46f81461017757806301b65b711461019257806303ec711d146101a257806306fdde03146101b5578063095ea7b3146101ca57806318160ddd146101ed575b600080fd5b61017f600581565b6040519081526020015b60405180910390f35b61017f681b1ae4d6e2ef50000081565b61017f6101b03660046113fc565b610394565b6101bd6103b4565b6040516101899190611464565b6101dd6101d8366004611477565b610446565b6040519015158152602001610189565b60025461017f565b6101dd6102033660046114a1565b61045e565b61017f6b43dacaf91c1a84ff0800000081565b60405160128152602001610189565b61017f610482565b6101dd6102403660046113fc565b610491565b61017f6102533660046113fc565b6001600160a01b031660009081526020819052604090205490565b6102766104f0565b005b61017f6102863660046113fc565b610504565b610293610522565b60405161018997969594939291906114dd565b6008546001600160a01b03165b6040516001600160a01b039091168152602001610189565b6102b36102d9366004611576565b610568565b6101bd610592565b6101dd6102f4366004611477565b6105a1565b61017f6103073660046113fc565b600a6020526000908152604090205481565b61017f60095481565b61027661033036600461158f565b6105af565b61017f610343366004611602565b6001600160a01b03918216600090815260016020908152604080832093909416825291909152205490565b61027661037c3660046113fc565b6106ee565b6101dd61038f366004611477565b61072c565b6001600160a01b0381166000908152602081905260408120545b92915050565b6060600380546103c390611635565b80601f01602080910402602001604051908101604052809291908181526020018280546103ef90611635565b801561043c5780601f106104115761010080835404028352916020019161043c565b820191906000526020600020905b81548152906001019060200180831161041f57829003601f168201915b5050505050905090565b60003361045481858561087b565b5060019392505050565b60003361046c85828561088d565b61047785858561090b565b506001949350505050565b600061048c61096a565b905090565b6000805b600b548110156104e757826001600160a01b0316600b82815481106104bc576104bc61166f565b6000918252602090912001546001600160a01b0316036104df5750600192915050565b600101610495565b50600092915050565b6104f8610a95565b6105026000610ac2565b565b6001600160a01b0381166000908152600760205260408120546103ae565b600060608060008060006060610536610b14565b61053e610b41565b60408051600080825260208201909252600f60f81b9b939a50919850469750309650945092509050565b600b818154811061057857600080fd5b6000918252602090912001546001600160a01b0316905081565b6060600480546103c390611635565b60003361045481858561090b565b834211156105d85760405163313c898160e11b8152600481018590526024015b60405180910390fd5b60007f6e71edae12b1b97f4d1f60370fef10105fa2faae0126114a169c64845d6126c98888886106258c6001600160a01b0316600090815260076020526040902080546001810190915590565b6040805160208101969096526001600160a01b0394851690860152929091166060840152608083015260a082015260c0810186905260e001604051602081830303815290604052805190602001209050600061068082610b6e565b9050600061069082878787610b9b565b9050896001600160a01b0316816001600160a01b0316146106d7576040516325c0072360e11b81526001600160a01b0380831660048301528b1660248201526044016105cf565b6106e28a8a8a61087b565b50505050505050505050565b6106f6610a95565b6001600160a01b03811661072057604051631e4fbdf760e01b8152600060048201526024016105cf565b61072981610ac2565b50565b6000610736610a95565b6001600160a01b03831661075c5760405162461bcd60e51b81526004016105cf90611685565b6001600160a01b0383166000908152600a6020526040902054681b1ae4d6e2ef5000009061078b9084906116de565b11156107ce5760405162461bcd60e51b815260206004820152601260248201527113585e0818db185a5b48195e18d95959195960721b60448201526064016105cf565b6009548211156108205760405162461bcd60e51b815260206004820152601b60248201527f4e6f7420656e6f75676820746f6b656e732072656d61696e696e67000000000060448201526064016105cf565b6001600160a01b0383166000908152600a6020526040812080548492906108489084906116de565b92505081905550816009600082825461086191906116f1565b90915550610872905033848461090b565b50600192915050565b6108888383836001610bc9565b505050565b6001600160a01b03838116600090815260016020908152604080832093861683529290522054600019811461090557818110156108f657604051637dc7a0d960e11b81526001600160a01b038416600482015260248101829052604481018390526064016105cf565b61090584848484036000610bc9565b50505050565b6001600160a01b03831661093557604051634b637e8f60e11b8152600060048201526024016105cf565b6001600160a01b03821661095f5760405163ec442f0560e01b8152600060048201526024016105cf565b610888838383610c9e565b6000306001600160a01b037f0000000000000000000000000000000000000000000000000000000000000000161480156109c357507f000000000000000000000000000000000000000000000000000000000000000046145b156109ed57507f000000000000000000000000000000000000000000000000000000000000000090565b61048c604080517f8b73c3c69bb8fe3d512ecc4cf759cc79239f7b179b0ffacaa9a75d522b39400f60208201527f0000000000000000000000000000000000000000000000000000000000000000918101919091527f000000000000000000000000000000000000000000000000000000000000000060608201524660808201523060a082015260009060c00160405160208183030381529060405280519060200120905090565b6008546001600160a01b031633146105025760405163118cdaa760e01b81523360048201526024016105cf565b600880546001600160a01b038381166001600160a01b0319831681179093556040519116919082907f8be0079c531659141344cd1fd0a4f28419497f9722a3daafe3b4186f6b6457e090600090a35050565b606061048c7f00000000000000000000000000000000000000000000000000000000000000006005610d9d565b606061048c7f00000000000000000000000000000000000000000000000000000000000000006006610d9d565b60006103ae610b7b61096a565b8360405161190160f01b8152600281019290925260228201526042902090565b600080600080610bad88888888610e48565b925092509250610bbd8282610f17565b50909695505050505050565b6001600160a01b038416610bf35760405163e602df0560e01b8152600060048201526024016105cf565b6001600160a01b038316610c1d57604051634a1406b160e11b8152600060048201526024016105cf565b6001600160a01b038085166000908152600160209081526040808320938716835292905220829055801561090557826001600160a01b0316846001600160a01b03167f8c5be1e5ebec7d5bd14f71427d1e84f3dd0314c0f7b2291e5b200ac8c7c3b92584604051610c9091815260200190565b60405180910390a350505050565b6001600160a01b038216610cc45760405162461bcd60e51b81526004016105cf90611685565b6001600160a01b03831615610d8757306001600160a01b03841603610d395760405162461bcd60e51b815260206004820152602560248201527f45524332303a207472616e736665722066726f6d20746865207a65726f206164604482015264647265737360d81b60648201526084016105cf565b60006064610d48600584611704565b610d52919061171b565b90506000610d6082846116f1565b9050610d6d858583610fd4565b610d76826110fe565b610d808585611192565b5050505050565b610d92838383610fd4565b610888600083611192565b606060ff8314610db757610db083611247565b90506103ae565b818054610dc390611635565b80601f0160208091040260200160405190810160405280929190818152602001828054610def90611635565b8015610e3c5780601f10610e1157610100808354040283529160200191610e3c565b820191906000526020600020905b815481529060010190602001808311610e1f57829003601f168201915b505050505090506103ae565b600080807f7fffffffffffffffffffffffffffffff5d576e7357a4501ddfe92f46681b20a0841115610e835750600091506003905082610f0d565b604080516000808252602082018084528a905260ff891692820192909252606081018790526080810186905260019060a0016020604051602081039080840390855afa158015610ed7573d6000803e3d6000fd5b5050604051601f1901519150506001600160a01b038116610f0357506000925060019150829050610f0d565b9250600091508190505b9450945094915050565b6000826003811115610f2b57610f2b61173d565b03610f34575050565b6001826003811115610f4857610f4861173d565b03610f665760405163f645eedf60e01b815260040160405180910390fd5b6002826003811115610f7a57610f7a61173d565b03610f9b5760405163fce698f760e01b8152600481018290526024016105cf565b6003826003811115610faf57610faf61173d565b03610fd0576040516335e2f38360e21b8152600481018290526024016105cf565b5050565b6001600160a01b038316610fff578060026000828254610ff491906116de565b909155506110719050565b6001600160a01b038316600090815260208190526040902054818110156110525760405163391434e360e21b81526001600160a01b038516600482015260248101829052604481018390526064016105cf565b6001600160a01b03841660009081526020819052604090209082900390555b6001600160a01b03821661108d576002805482900390556110ac565b6001600160a01b03821660009081526020819052604090208054820190555b816001600160a01b0316836001600160a01b03167fddf252ad1be2c89b69c2b068fc378daa952ba7f163c4a11628f55a4df523b3ef836040516110f191815260200190565b60405180910390a3505050565b600061110960025490565b905060005b600b54811015610888576000600b828154811061112d5761112d61166f565b60009182526020822001546001600160a01b03169150611162826001600160a01b031660009081526020819052604090205490565b90506000846111718784611704565b61117b919061171b565b90506111878382611286565b50505060010161110e565b6001600160a01b0381166000908152602081905260408120541180156111be57506111bc81610491565b155b1561120f57600b80546001810182556000919091527f0175b7a638427703f0dbe7bb9bbf987a2551717b34e79f33b5b1008d1fa01db90180546001600160a01b0319166001600160a01b0383161790555b6001600160a01b038216600090815260208190526040902054158015611239575061123982610491565b15610fd057610fd0826112bc565b60606000611254836113b8565b604080516020808252818301909252919250600091906020820181803683375050509182525060208101929092525090565b6001600160a01b0382166112b05760405163ec442f0560e01b8152600060048201526024016105cf565b610fd060008383610c9e565b600b5460005b8181101561088857826001600160a01b0316600b82815481106112e7576112e761166f565b6000918252602090912001546001600160a01b0316036113b057600b61130e6001846116f1565b8154811061131e5761131e61166f565b600091825260209091200154600b80546001600160a01b03909216918390811061134a5761134a61166f565b9060005260206000200160006101000a8154816001600160a01b0302191690836001600160a01b03160217905550600b80548061138957611389611753565b600082815260209020810160001990810180546001600160a01b0319169055019055505050565b6001016112c2565b600060ff8216601f8111156103ae57604051632cd44ac360e21b815260040160405180910390fd5b80356001600160a01b03811681146113f757600080fd5b919050565b60006020828403121561140e57600080fd5b611417826113e0565b9392505050565b6000815180845260005b8181101561144457602081850181015186830182015201611428565b506000602082860101526020601f19601f83011685010191505092915050565b602081526000611417602083018461141e565b6000806040838503121561148a57600080fd5b611493836113e0565b946020939093013593505050565b6000806000606084860312156114b657600080fd5b6114bf846113e0565b92506114cd602085016113e0565b9150604084013590509250925092565b60ff60f81b881681526000602060e060208401526114fe60e084018a61141e565b8381036040850152611510818a61141e565b606085018990526001600160a01b038816608086015260a0850187905284810360c08601528551808252602080880193509091019060005b8181101561156457835183529284019291840191600101611548565b50909c9b505050505050505050505050565b60006020828403121561158857600080fd5b5035919050565b600080600080600080600060e0888a0312156115aa57600080fd5b6115b3886113e0565b96506115c1602089016113e0565b95506040880135945060608801359350608088013560ff811681146115e557600080fd5b9699959850939692959460a0840135945060c09093013592915050565b6000806040838503121561161557600080fd5b61161e836113e0565b915061162c602084016113e0565b90509250929050565b600181811c9082168061164957607f821691505b60208210810361166957634e487b7160e01b600052602260045260246000fd5b50919050565b634e487b7160e01b600052603260045260246000fd5b60208082526023908201527f45524332303a207472616e7366657220746f20746865207a65726f206164647260408201526265737360e81b606082015260800190565b634e487b7160e01b600052601160045260246000fd5b808201808211156103ae576103ae6116c8565b818103818111156103ae576103ae6116c8565b80820281158282048414176103ae576103ae6116c8565b60008261173857634e487b7160e01b600052601260045260246000fd5b500490565b634e487b7160e01b600052602160045260246000fd5b634e487b7160e01b600052603160045260246000fdfea264697066735822122010b7e221e8d5b75ff8e49380c711d69a9948be14da9af154a649820359acc36464736f6c63430008180033",
  "linkReferences": {},
  "deployedLinkReferences": {}
}